{
  "contractName": "BlockCastingWallet",
  "abi": [
    {
      "constant": true,
      "inputs": [],
      "name": "owner",
      "outputs": [
        {
          "name": "",
          "type": "address"
        }
      ],
      "payable": false,
      "stateMutability": "view",
      "type": "function"
    },
    {
      "constant": true,
      "inputs": [],
      "name": "receiver",
      "outputs": [
        {
          "name": "",
          "type": "address"
        }
      ],
      "payable": false,
      "stateMutability": "view",
      "type": "function"
    },
    {
      "inputs": [],
      "payable": false,
      "stateMutability": "nonpayable",
      "type": "constructor"
    },
    {
      "constant": true,
      "inputs": [],
      "name": "getBalance",
      "outputs": [
        {
          "name": "",
          "type": "uint256"
        }
      ],
      "payable": false,
      "stateMutability": "view",
      "type": "function"
    },
    {
      "constant": false,
      "inputs": [],
      "name": "deposit",
      "outputs": [],
      "payable": true,
      "stateMutability": "payable",
      "type": "function"
    },
    {
      "constant": false,
      "inputs": [
        {
          "name": "_value",
          "type": "uint256"
        }
      ],
      "name": "transfer",
      "outputs": [
        {
          "name": "",
          "type": "bool"
        }
      ],
      "payable": false,
      "stateMutability": "nonpayable",
      "type": "function"
    }
  ],
  "bytecode": "0x608060405234801561001057600080fd5b50336000806101000a81548173ffffffffffffffffffffffffffffffffffffffff021916908373ffffffffffffffffffffffffffffffffffffffff16021790555061029a806100606000396000f30060806040526004361061006d576000357c0100000000000000000000000000000000000000000000000000000000900463ffffffff16806312065fe01461007257806312514bba1461009d5780638da5cb5b146100e2578063d0e30db014610139578063f7260d3e14610143575b600080fd5b34801561007e57600080fd5b5061008761019a565b6040518082815260200191505060405180910390f35b3480156100a957600080fd5b506100c8600480360381019080803590602001909291905050506101b9565b604051808215151515815260200191505060405180910390f35b3480156100ee57600080fd5b506100f7610221565b604051808273ffffffffffffffffffffffffffffffffffffffff1673ffffffffffffffffffffffffffffffffffffffff16815260200191505060405180910390f35b610141610246565b005b34801561014f57600080fd5b50610158610248565b604051808273ffffffffffffffffffffffffffffffffffffffff1673ffffffffffffffffffffffffffffffffffffffff16815260200191505060405180910390f35b60003073ffffffffffffffffffffffffffffffffffffffff1631905090565b6000816101c461019a565b101515156101d157600080fd5b3373ffffffffffffffffffffffffffffffffffffffff166108fc839081150290604051600060405180830381858888f19350505050158015610217573d6000803e3d6000fd5b5060019050919050565b6000809054906101000a900473ffffffffffffffffffffffffffffffffffffffff1681565b565b600160009054906101000a900473ffffffffffffffffffffffffffffffffffffffff16815600a165627a7a72305820e07cfe75b62a585818510ad87bbfb48cc49cf77864b73d241a5cd31bbb11c2bd0029",
  "source": "pragma solidity ^0.4.24;\r\n\r\ncontract BlockCastingWallet {\r\n    address public owner;\r\n    address public receiver;\r\n\r\n    constructor() public {\r\n        owner = msg.sender;\r\n    }\r\n    \r\n    function getBalance() public view returns (uint) {\r\n        return address(this).balance;\r\n    }\r\n\r\n    function deposit() public payable {\r\n        \r\n    }\r\n  \r\n    \r\n    function transfer(uint _value) public returns (bool) {\r\n     require(getBalance() >=_value);\r\n    msg.sender.transfer(_value);\r\n    return true;\r\n    }\r\n}\r\n",
  "sourcePath": "C:\\Users\\UHR\\blockcasting_blockchain\\contracts\\BlockCastingWallet.sol",
  "compiler": {
    "name": "solc",
    "version": "0.4.25+commit.59dbf8f1.Emscripten.clang"
  },
  "schemaVersion": "2.0.2",
  "updatedAt": "2019-05-31T09:30:17.722Z"
}